{
  "abi": [
    {
      "inputs": [],
      "stateMutability": "nonpayable",
      "type": "constructor"
    },
    {
      "anonymous": false,
      "inputs": [
        {
          "indexed": true,
          "internalType": "address",
          "name": "owner",
          "type": "address"
        },
        {
          "indexed": true,
          "internalType": "address",
          "name": "approved",
          "type": "address"
        },
        {
          "indexed": true,
          "internalType": "uint256",
          "name": "tokenId",
          "type": "uint256"
        }
      ],
      "name": "Approval",
      "type": "event"
    },
    {
      "anonymous": false,
      "inputs": [
        {
          "indexed": true,
          "internalType": "address",
          "name": "owner",
          "type": "address"
        },
        {
          "indexed": true,
          "internalType": "address",
          "name": "operator",
          "type": "address"
        },
        {
          "indexed": false,
          "internalType": "bool",
          "name": "approved",
          "type": "bool"
        }
      ],
      "name": "ApprovalForAll",
      "type": "event"
    },
    {
      "anonymous": false,
      "inputs": [
        {
          "indexed": true,
          "internalType": "address",
          "name": "previousOwner",
          "type": "address"
        },
        {
          "indexed": true,
          "internalType": "address",
          "name": "newOwner",
          "type": "address"
        }
      ],
      "name": "OwnershipTransferred",
      "type": "event"
    },
    {
      "anonymous": false,
      "inputs": [
        {
          "indexed": true,
          "internalType": "address",
          "name": "from",
          "type": "address"
        },
        {
          "indexed": true,
          "internalType": "address",
          "name": "to",
          "type": "address"
        },
        {
          "indexed": true,
          "internalType": "uint256",
          "name": "tokenId",
          "type": "uint256"
        }
      ],
      "name": "Transfer",
      "type": "event"
    },
    {
      "inputs": [],
      "name": "PRICE_PER_TOKEN",
      "outputs": [
        {
          "internalType": "uint256",
          "name": "",
          "type": "uint256"
        }
      ],
      "stateMutability": "view",
      "type": "function"
    },
    {
      "inputs": [
        {
          "internalType": "address",
          "name": "to",
          "type": "address"
        },
        {
          "internalType": "uint256",
          "name": "tokenId",
          "type": "uint256"
        }
      ],
      "name": "approve",
      "outputs": [],
      "stateMutability": "nonpayable",
      "type": "function"
    },
    {
      "inputs": [
        {
          "internalType": "address",
          "name": "owner",
          "type": "address"
        }
      ],
      "name": "balanceOf",
      "outputs": [
        {
          "internalType": "uint256",
          "name": "",
          "type": "uint256"
        }
      ],
      "stateMutability": "view",
      "type": "function"
    },
    {
      "inputs": [
        {
          "internalType": "uint256",
          "name": "tokenId",
          "type": "uint256"
        }
      ],
      "name": "getApproved",
      "outputs": [
        {
          "internalType": "address",
          "name": "",
          "type": "address"
        }
      ],
      "stateMutability": "view",
      "type": "function"
    },
    {
      "inputs": [
        {
          "internalType": "address",
          "name": "owner",
          "type": "address"
        },
        {
          "internalType": "address",
          "name": "operator",
          "type": "address"
        }
      ],
      "name": "isApprovedForAll",
      "outputs": [
        {
          "internalType": "bool",
          "name": "",
          "type": "bool"
        }
      ],
      "stateMutability": "view",
      "type": "function"
    },
    {
      "inputs": [
        {
          "internalType": "address",
          "name": "to",
          "type": "address"
        }
      ],
      "name": "mint",
      "outputs": [],
      "stateMutability": "payable",
      "type": "function"
    },
    {
      "inputs": [],
      "name": "name",
      "outputs": [
        {
          "internalType": "string",
          "name": "",
          "type": "string"
        }
      ],
      "stateMutability": "view",
      "type": "function"
    },
    {
      "inputs": [],
      "name": "owner",
      "outputs": [
        {
          "internalType": "address",
          "name": "",
          "type": "address"
        }
      ],
      "stateMutability": "view",
      "type": "function"
    },
    {
      "inputs": [
        {
          "internalType": "uint256",
          "name": "tokenId",
          "type": "uint256"
        }
      ],
      "name": "ownerOf",
      "outputs": [
        {
          "internalType": "address",
          "name": "",
          "type": "address"
        }
      ],
      "stateMutability": "view",
      "type": "function"
    },
    {
      "inputs": [],
      "name": "renounceOwnership",
      "outputs": [],
      "stateMutability": "nonpayable",
      "type": "function"
    },
    {
      "inputs": [
        {
          "internalType": "address",
          "name": "to",
          "type": "address"
        }
      ],
      "name": "safeMint",
      "outputs": [],
      "stateMutability": "nonpayable",
      "type": "function"
    },
    {
      "inputs": [
        {
          "internalType": "address",
          "name": "from",
          "type": "address"
        },
        {
          "internalType": "address",
          "name": "to",
          "type": "address"
        },
        {
          "internalType": "uint256",
          "name": "tokenId",
          "type": "uint256"
        }
      ],
      "name": "safeTransferFrom",
      "outputs": [],
      "stateMutability": "nonpayable",
      "type": "function"
    },
    {
      "inputs": [
        {
          "internalType": "address",
          "name": "from",
          "type": "address"
        },
        {
          "internalType": "address",
          "name": "to",
          "type": "address"
        },
        {
          "internalType": "uint256",
          "name": "tokenId",
          "type": "uint256"
        },
        {
          "internalType": "bytes",
          "name": "data",
          "type": "bytes"
        }
      ],
      "name": "safeTransferFrom",
      "outputs": [],
      "stateMutability": "nonpayable",
      "type": "function"
    },
    {
      "inputs": [
        {
          "internalType": "address",
          "name": "operator",
          "type": "address"
        },
        {
          "internalType": "bool",
          "name": "approved",
          "type": "bool"
        }
      ],
      "name": "setApprovalForAll",
      "outputs": [],
      "stateMutability": "nonpayable",
      "type": "function"
    },
    {
      "inputs": [
        {
          "internalType": "bytes4",
          "name": "interfaceId",
          "type": "bytes4"
        }
      ],
      "name": "supportsInterface",
      "outputs": [
        {
          "internalType": "bool",
          "name": "",
          "type": "bool"
        }
      ],
      "stateMutability": "view",
      "type": "function"
    },
    {
      "inputs": [],
      "name": "symbol",
      "outputs": [
        {
          "internalType": "string",
          "name": "",
          "type": "string"
        }
      ],
      "stateMutability": "view",
      "type": "function"
    },
    {
      "inputs": [
        {
          "internalType": "uint256",
          "name": "tokenId",
          "type": "uint256"
        }
      ],
      "name": "tokenURI",
      "outputs": [
        {
          "internalType": "string",
          "name": "",
          "type": "string"
        }
      ],
      "stateMutability": "pure",
      "type": "function"
    },
    {
      "inputs": [
        {
          "internalType": "address",
          "name": "from",
          "type": "address"
        },
        {
          "internalType": "address",
          "name": "to",
          "type": "address"
        },
        {
          "internalType": "uint256",
          "name": "tokenId",
          "type": "uint256"
        }
      ],
      "name": "transferFrom",
      "outputs": [],
      "stateMutability": "nonpayable",
      "type": "function"
    },
    {
      "inputs": [
        {
          "internalType": "address",
          "name": "newOwner",
          "type": "address"
        }
      ],
      "name": "transferOwnership",
      "outputs": [],
      "stateMutability": "nonpayable",
      "type": "function"
    }
  ],
  "bytecode": {
    "object": "0x60806040523480156200001157600080fd5b5060405180604001604052806006815260200165151a58dad95d60d21b815250604051806040016040528060048152602001631510d2d560e21b81525081600090816200005f91906200018c565b5060016200006e82826200018c565b5050506200008b620000856200009160201b60201c565b62000095565b62000258565b3390565b600680546001600160a01b038381166001600160a01b0319831681179093556040519116919082907f8be0079c531659141344cd1fd0a4f28419497f9722a3daafe3b4186f6b6457e090600090a35050565b634e487b7160e01b600052604160045260246000fd5b600181811c908216806200011257607f821691505b6020821081036200013357634e487b7160e01b600052602260045260246000fd5b50919050565b601f8211156200018757600081815260208120601f850160051c81016020861015620001625750805b601f850160051c820191505b8181101562000183578281556001016200016e565b5050505b505050565b81516001600160401b03811115620001a857620001a8620000e7565b620001c081620001b98454620000fd565b8462000139565b602080601f831160018114620001f85760008415620001df5750858301515b600019600386901b1c1916600185901b17855562000183565b600085815260208120601f198616915b82811015620002295788860151825594840194600190910190840162000208565b5085821015620002485787850151600019600388901b60f8161c191681555b5050505050600190811b01905550565b61141480620002686000396000f3fe6080604052600436106101145760003560e01c806370a08231116100a0578063a22cb46511610064578063a22cb465146102ef578063b88d4fde1461030f578063c87b56dd1461032f578063e985e9c51461034f578063f2fde38b1461036f57600080fd5b806370a082311461025d578063715018a61461028b578063833b9499146102a05780638da5cb5b146102bc57806395d89b41146102da57600080fd5b806323b872dd116100e757806323b872dd146101ca57806340d097c3146101ea57806342842e0e1461020a5780636352211e1461022a5780636a6278421461024a57600080fd5b806301ffc9a71461011957806306fdde031461014e578063081812fc14610170578063095ea7b3146101a8575b600080fd5b34801561012557600080fd5b50610139610134366004610fb8565b61038f565b60405190151581526020015b60405180910390f35b34801561015a57600080fd5b506101636103e1565b6040516101459190611022565b34801561017c57600080fd5b5061019061018b366004611035565b610473565b6040516001600160a01b039091168152602001610145565b3480156101b457600080fd5b506101c86101c336600461106a565b61049a565b005b3480156101d657600080fd5b506101c86101e5366004611094565b6105b4565b3480156101f657600080fd5b506101c86102053660046110d0565b6105e5565b34801561021657600080fd5b506101c8610225366004611094565b610616565b34801561023657600080fd5b50610190610245366004611035565b610631565b6101c86102583660046110d0565b610691565b34801561026957600080fd5b5061027d6102783660046110d0565b6106e9565b604051908152602001610145565b34801561029757600080fd5b506101c861076f565b3480156102ac57600080fd5b5061027d67016345785d8a000081565b3480156102c857600080fd5b506006546001600160a01b0316610190565b3480156102e657600080fd5b50610163610783565b3480156102fb57600080fd5b506101c861030a3660046110eb565b610792565b34801561031b57600080fd5b506101c861032a36600461113d565b61079d565b34801561033b57600080fd5b5061016361034a366004611035565b6107d5565b34801561035b57600080fd5b5061013961036a366004611219565b6107f6565b34801561037b57600080fd5b506101c861038a3660046110d0565b610824565b60006001600160e01b031982166380ac58cd60e01b14806103c057506001600160e01b03198216635b5e139f60e01b145b806103db57506301ffc9a760e01b6001600160e01b03198316145b92915050565b6060600080546103f09061124c565b80601f016020809104026020016040519081016040528092919081815260200182805461041c9061124c565b80156104695780601f1061043e57610100808354040283529160200191610469565b820191906000526020600020905b81548152906001019060200180831161044c57829003601f168201915b5050505050905090565b600061047e8261089d565b506000908152600460205260409020546001600160a01b031690565b60006104a582610631565b9050806001600160a01b0316836001600160a01b0316036105175760405162461bcd60e51b815260206004820152602160248201527f4552433732313a20617070726f76616c20746f2063757272656e74206f776e656044820152603960f91b60648201526084015b60405180910390fd5b336001600160a01b0382161480610533575061053381336107f6565b6105a55760405162461bcd60e51b815260206004820152603e60248201527f4552433732313a20617070726f76652063616c6c6572206973206e6f7420746f60448201527f6b656e206f776e6572206e6f7220617070726f76656420666f7220616c6c0000606482015260840161050e565b6105af83836108fc565b505050565b6105be338261096a565b6105da5760405162461bcd60e51b815260040161050e90611286565b6105af8383836109c9565b6105ed610b65565b60006105f860075490565b9050610608600780546001019055565b6106128282610bbf565b5050565b6105af8383836040518060200160405280600081525061079d565b6000818152600260205260408120546001600160a01b0316806103db5760405162461bcd60e51b8152602060048201526018602482015277115490cdcc8c4e881a5b9d985b1a59081d1bdad95b88125160421b604482015260640161050e565b3467016345785d8a000011156105ed5760405162461bcd60e51b815260206004820152601f60248201527f45746865722076616c75652073656e74206973206e6f7420636f727265637400604482015260640161050e565b60006001600160a01b0382166107535760405162461bcd60e51b815260206004820152602960248201527f4552433732313a2061646472657373207a65726f206973206e6f7420612076616044820152683634b21037bbb732b960b91b606482015260840161050e565b506001600160a01b031660009081526003602052604090205490565b610777610b65565b6107816000610bd9565b565b6060600180546103f09061124c565b610612338383610c2b565b6107a7338361096a565b6107c35760405162461bcd60e51b815260040161050e90611286565b6107cf84848484610cf9565b50505050565b60606040518060600160405280602281526020016113bd6022913992915050565b6001600160a01b03918216600090815260056020908152604080832093909416825291909152205460ff1690565b61082c610b65565b6001600160a01b0381166108915760405162461bcd60e51b815260206004820152602660248201527f4f776e61626c653a206e6577206f776e657220697320746865207a65726f206160448201526564647265737360d01b606482015260840161050e565b61089a81610bd9565b50565b6000818152600260205260409020546001600160a01b031661089a5760405162461bcd60e51b8152602060048201526018602482015277115490cdcc8c4e881a5b9d985b1a59081d1bdad95b88125160421b604482015260640161050e565b600081815260046020526040902080546001600160a01b0319166001600160a01b038416908117909155819061093182610631565b6001600160a01b03167f8c5be1e5ebec7d5bd14f71427d1e84f3dd0314c0f7b2291e5b200ac8c7c3b92560405160405180910390a45050565b60008061097683610631565b9050806001600160a01b0316846001600160a01b0316148061099d575061099d81856107f6565b806109c15750836001600160a01b03166109b684610473565b6001600160a01b0316145b949350505050565b826001600160a01b03166109dc82610631565b6001600160a01b031614610a405760405162461bcd60e51b815260206004820152602560248201527f4552433732313a207472616e736665722066726f6d20696e636f72726563742060448201526437bbb732b960d91b606482015260840161050e565b6001600160a01b038216610aa25760405162461bcd60e51b8152602060048201526024808201527f4552433732313a207472616e7366657220746f20746865207a65726f206164646044820152637265737360e01b606482015260840161050e565b610aad6000826108fc565b6001600160a01b0383166000908152600360205260408120805460019290610ad69084906112ea565b90915550506001600160a01b0382166000908152600360205260408120805460019290610b049084906112fd565b909155505060008181526002602052604080822080546001600160a01b0319166001600160a01b0386811691821790925591518493918716917fddf252ad1be2c89b69c2b068fc378daa952ba7f163c4a11628f55a4df523b3ef91a4505050565b6006546001600160a01b031633146107815760405162461bcd60e51b815260206004820181905260248201527f4f776e61626c653a2063616c6c6572206973206e6f7420746865206f776e6572604482015260640161050e565b610612828260405180602001604052806000815250610d2c565b600680546001600160a01b038381166001600160a01b0319831681179093556040519116919082907f8be0079c531659141344cd1fd0a4f28419497f9722a3daafe3b4186f6b6457e090600090a35050565b816001600160a01b0316836001600160a01b031603610c8c5760405162461bcd60e51b815260206004820152601960248201527f4552433732313a20617070726f766520746f2063616c6c657200000000000000604482015260640161050e565b6001600160a01b03838116600081815260056020908152604080832094871680845294825291829020805460ff191686151590811790915591519182527f17307eab39ab6107e8899845ad3d59bd9653f200f220920489ca2b5937696c31910160405180910390a3505050565b610d048484846109c9565b610d1084848484610d5f565b6107cf5760405162461bcd60e51b815260040161050e90611310565b610d368383610e60565b610d436000848484610d5f565b6105af5760405162461bcd60e51b815260040161050e90611310565b60006001600160a01b0384163b15610e5557604051630a85bd0160e11b81526001600160a01b0385169063150b7a0290610da3903390899088908890600401611362565b6020604051808303816000875af1925050508015610dde575060408051601f3d908101601f19168201909252610ddb9181019061139f565b60015b610e3b573d808015610e0c576040519150601f19603f3d011682016040523d82523d6000602084013e610e11565b606091505b508051600003610e335760405162461bcd60e51b815260040161050e90611310565b805181602001fd5b6001600160e01b031916630a85bd0160e11b1490506109c1565b506001949350505050565b6001600160a01b038216610eb65760405162461bcd60e51b815260206004820181905260248201527f4552433732313a206d696e7420746f20746865207a65726f2061646472657373604482015260640161050e565b6000818152600260205260409020546001600160a01b031615610f1b5760405162461bcd60e51b815260206004820152601c60248201527f4552433732313a20746f6b656e20616c7265616479206d696e74656400000000604482015260640161050e565b6001600160a01b0382166000908152600360205260408120805460019290610f449084906112fd565b909155505060008181526002602052604080822080546001600160a01b0319166001600160a01b03861690811790915590518392907fddf252ad1be2c89b69c2b068fc378daa952ba7f163c4a11628f55a4df523b3ef908290a45050565b6001600160e01b03198116811461089a57600080fd5b600060208284031215610fca57600080fd5b8135610fd581610fa2565b9392505050565b6000815180845260005b8181101561100257602081850181015186830182015201610fe6565b506000602082860101526020601f19601f83011685010191505092915050565b602081526000610fd56020830184610fdc565b60006020828403121561104757600080fd5b5035919050565b80356001600160a01b038116811461106557600080fd5b919050565b6000806040838503121561107d57600080fd5b6110868361104e565b946020939093013593505050565b6000806000606084860312156110a957600080fd5b6110b28461104e565b92506110c06020850161104e565b9150604084013590509250925092565b6000602082840312156110e257600080fd5b610fd58261104e565b600080604083850312156110fe57600080fd5b6111078361104e565b91506020830135801515811461111c57600080fd5b809150509250929050565b634e487b7160e01b600052604160045260246000fd5b6000806000806080858703121561115357600080fd5b61115c8561104e565b935061116a6020860161104e565b925060408501359150606085013567ffffffffffffffff8082111561118e57600080fd5b818701915087601f8301126111a257600080fd5b8135818111156111b4576111b4611127565b604051601f8201601f19908116603f011681019083821181831017156111dc576111dc611127565b816040528281528a60208487010111156111f557600080fd5b82602086016020830137600060208483010152809550505050505092959194509250565b6000806040838503121561122c57600080fd5b6112358361104e565b91506112436020840161104e565b90509250929050565b600181811c9082168061126057607f821691505b60208210810361128057634e487b7160e01b600052602260045260246000fd5b50919050565b6020808252602e908201527f4552433732313a2063616c6c6572206973206e6f7420746f6b656e206f776e6560408201526d1c881b9bdc88185c1c1c9bdd995960921b606082015260800190565b634e487b7160e01b600052601160045260246000fd5b818103818111156103db576103db6112d4565b808201808211156103db576103db6112d4565b60208082526032908201527f4552433732313a207472616e7366657220746f206e6f6e20455243373231526560408201527131b2b4bb32b91034b6b83632b6b2b73a32b960711b606082015260800190565b6001600160a01b038581168252841660208201526040810183905260806060820181905260009061139590830184610fdc565b9695505050505050565b6000602082840312156113b157600080fd5b8151610fd581610fa256fe68747470733a2f2f7469636b6574732e78706e732e78797a2f746f6b656e2e706e67a26469706673582212209cb5bd821ed4df84d438dbac7b1fb9ac7e76c39e97378be05bff5d1a4f477f5764736f6c63430008110033",
    "linkReferences": {}
  },
  "methodIdentifiers": {
    "PRICE_PER_TOKEN()": "833b9499",
    "approve(address,uint256)": "095ea7b3",
    "balanceOf(address)": "70a08231",
    "getApproved(uint256)": "081812fc",
    "isApprovedForAll(address,address)": "e985e9c5",
    "mint(address)": "6a627842",
    "name()": "06fdde03",
    "owner()": "8da5cb5b",
    "ownerOf(uint256)": "6352211e",
    "renounceOwnership()": "715018a6",
    "safeMint(address)": "40d097c3",
    "safeTransferFrom(address,address,uint256)": "42842e0e",
    "safeTransferFrom(address,address,uint256,bytes)": "b88d4fde",
    "setApprovalForAll(address,bool)": "a22cb465",
    "supportsInterface(bytes4)": "01ffc9a7",
    "symbol()": "95d89b41",
    "tokenURI(uint256)": "c87b56dd",
    "transferFrom(address,address,uint256)": "23b872dd",
    "transferOwnership(address)": "f2fde38b"
  },
  "id": 0
}